:100000000C9434000C9449000C9449000C94490061
:100010000C9449000C9449000C9449000C9449003C
:100020000C9449000C9449000C9449000C9449002C
:100030000C9449000C9449000C9449000C9449001C
:100040000C9449000C9449000C9449000C9449000C
:100050000C9449000C9449000C9449000C944900FC
:100060000C9449000C94490011241FBECFEFD8E036
:10007000DEBFCDBF11E0A0E0B1E0EEE6F3E002C0EC
:1000800005900D92A031B107D9F70E947F010C9421
:10009000B5010C94000095B19F70282F207F922B02
:1000A00095B92A982B9A00C000C000002B9833E520
:1000B0003A95F1F7000025B12F7030E1839FC00120
:1000C0001124822B85B92B9A00C000C000002B9808
:1000D00083ED90E30197F1F700C00000089595B11A
:1000E0009F70282F207F922B95B92A9A2B9A00C0B7
:1000F00000C000002B9833E53A95F1F7000025B1D8
:100100002F7030E1839FC0011124822B85B92B9A77
:1001100000C000C000002B9883ED90E30197F1F739
:1001200000C0000008958FEF84B983ED90E301973C
:10013000F1F700C0000082E00E944B0088E20E94BC
:100140004B008CE00E944B0086E00E944B0081E057
:100150000E944B0081EE94E00197F1F700C000008F
:100160000895CF93DF93EC018991882319F00E94C1
:100170006F00FACFDF91CF91089581E00E944B008C
:1001800083ED90E30197F1F700C0000080E80C9444
:100190004B00509A5198599A52985A9A089580E46F
:1001A00080937C0087E880937A00089590917C008A
:1001B000987F90937C0090917C008770982B90930F
:1001C0007C0080917A00806480937A0080917A002C
:1001D00084FFFCCF80917A00806180937A008091C7
:1001E0007800909179000895E0E8F0E080818368DC
:1001F0008083E1E8F0E080818B608083219A08951C
:10020000CF93DF93CDB7DEB7A3970FB6F894DEBFD9
:100210000FBECDBF2FE0E0E0F1E0DE01559601908A
:100220000D922A95E1F79C0121503109283C3105B6
:1002300050F483EC90E0909389008093880082E3EF
:10024000898380E32DC09C01225D31092332314036
:1002500050F48FEE91E0909389008093880082E3C0
:10026000898385E31DC09C01255F3140283C310511
:1002700050F487EB92E0909389008093880082E3AA
:10028000898389E30DC08D5B92408434914088F46A
:100290008BEF93E0909389008093880083E38983B8
:1002A0008A838FED8B8383E48C8380E28D831E822F
:1002B0000CC010928900109288008FE4898386E434
:1002C0008A838B8380E28C831D82CE0145960E94B7
:1002D000B10080EC0E944B00CE0101960E94B1005B
:1002E00087E893E10197F1F700C00000A3960FB6ED
:1002F000F894DEBF0FBECDBFDF91CF9108950E946D
:10030000C9000E94CF000E94F4000E949300499906
:1003100015C05A9A4A9B12C0589A2FE38DE093E079
:10032000215080409040E1F700C000000E94BD00D5
:1003300080E00E94D6000E940001E9CF58982FE388
:100340008DE093E0215080409040E1F700C0000034
:100350005A982FE38DE093E0215080409040E1F7E0
:0E03600000C000000E94BD00D2CFF894FFCF75
:10036E0054656D7065726174757265203A2900006E
:00000001FF
